:1000000010C01DC0DCC01BC01AC019C018C017C06A
:1000100016C015C014C061C012C011C010C00FC0FE
:100020000EC011241FBECFEDCDBF10E0A0E6B0E0A2
:1000300001C01D92A337B107E1F703D17EC1E0CF24
:1000400088EF8ABB8EE18BBB84E087BB18BA08952A
:1000500020B7206A20BF8F3F910509F06CF48130F2
:100060002FEF92071CF097FF09C002C081E09FEFBD
:10007000815086BF8FEF05C08FEF90E09FEF96BF56
:1000800080958CBF08952FB5206A2FBD8F3F9105B5
:1000900009F084F481302FEF92071CF097FF0CC019
:1000A00002C081E09FEF019799279BBD8ABD8FEF2A
:1000B00090E009C08FEF90E02FEF30E03BBD2ABD0C
:1000C00080959095992799BD88BD089580B78F70C8
:1000D00080BF8FB58F708FBD08951F920F920FB69E
:1000E0000F9211248F9381E08093720080916000C1
:1000F0008F5F809360008F910F900FBE0F901F90C5
:10010000189582B79091600028B720FF02C087FD44
:100110009F5F0895FC018781882341F08481958148
:10012000681B790B613C744408F01782F89496813F
:100130009F5F81E0943610F480E096837894089570
:10014000FC01442329F081E087837583648308954B
:100150008781882369F0178284819581681B790BD8
:10016000CB019951813C9B4218F4718360831682C4
:100170000895FC01F89420813181789482819381E3
:10018000281B390B44E0359527954A95E1F7280F50
:10019000391F33832283C901805E9E42813243E04E
:1001A00094071CF0C90192530895803E9C4F24F49B
:1001B000C901805C9B42089580E090E008951F9201
:1001C0000F920FB60F9211240F931F932F933F930B
:1001D0004F935F936F937F938F939F93AF93BF934F
:1001E000CF93DF93EF93FF9319B38BDFEC01009173
:1001F000610001271093610001FF06C0412F42708A
:10020000BC0182E690E09CDF02FF06C0412F4470F3
:10021000BE018AE690E094DFFF91EF91DF91CF91EC
:10022000BF91AF919F918F917F916F915F914F910E
:100230003F912F911F910F910F900FBE0F901F9024
:100240001895FEDE83E080BF21E023BF2FBD89E04B
:100250008EBD12BE84E890E09DBD8CBD29BF86E0B6
:1002600082BB80E18BBF89B380936100789480E08A
:10027000F12C909172009923E1F3109272008F5F3C
:100280008F33B8F33EDFEC01BC0182E690E042DF41
:10029000882321F0DC98DB9A19DFE9CFBE018AE6DA
:1002A00090E038DF8111F6CFDC9ADB988AE690E0A7
:1002B00060DFEC0182E690E05CDF9C0183E68F1555
:1002C00010F0F39427C0CE0165E070E025D0EC017A
:1002D00054E0D595C7955A95E1F7C90165E070E0FE
:1002E0001BD08C0164E0159507956A95E1F7CE0166
:1002F000800F911F91958195910995958795959579
:100300008795A6DECE01801B910B959587959595D7
:100310008795B9DE80E0ADCF0024552704C0080ED4
:10032000591F880F991F009729F076956795B8F3A4
:0E0330007105B9F7802D952F0895F894FFCF31
:00000001FF
